:0400000007EF00F016
:0A0008005F8211ED3EF0C3EF3DF002
:0E200800306E84828490305041EC3DF0120026
:10201800000102030405060708092A002B202020D6
:102028002A2A4672617365206573636F6E646964FA
:1020380061203A2D29202A2A00204C45445320416A
:1020480050414741444F5320004C45443120454EB0
:1020580043454E4449444F004C45443220454E4385
:10206800454E4449444F00486F6C6120416C756D82
:102078006E6F7300424F54312000424F543100427A
:0F2088004F543200424F543300424F5434000043
:107A06001450D8B4120014061200815000F0010E72
:107A1600156E00F01200306E84928490305041EC66
:107A26003DF01200000164516511D8B412006407DC
:107A3600D8A065071200000E8A6E000E816EF00E49
:107A4600936EF19EF180F290F28612000100000022
:107A56000100000009000000FFFF040A20FF0101E9
:107A6600E803D59ED59CD59AD596D580D582D58462
:107A7600D20ED66E480ED76EF28A12002F6E0F0EF9
:107A86008C1684842F50F00B8C1284940F0E8C1657
:107A960084842F38F00B8C1284941200CD90CD92F2
:107AA600CD84CD96CF0ECD16CD9ECD9C1B0ECE6E23
:107AB600D10ECF6E9E909D80F28C120073EC3DF03D
:107AC6009592959034EC3DF0D58E51EC3DF0CD80FD
:107AD600F28E1EEC3DF066EC3EF02AEC3FF0FDD750
:107AE600000E896E000E8A6E000E8B6E000E8C6E76
:107AF600000E8D6E9268936894680C0E956E000E5B
:107B0600966E070EB46E0F0EC16E1200010E0EECCD
:107B16003DF0000E316E000E326E000E336E000E1A
:107B2600346E010E3126000E3222332234223450B6
:107B3600331007E1E80E315C030E3258D8B012005C
:107B4600F0D71200316E318E31500EEC3DF0000E42
:107B5600326E000E336E000E346E000E356E010E60
:107B66003226000E3322342235223550341007E1F6
:107B7600100E325C270E3358D8B01200F0D7120020
:107B8600520EF66E7A0EF76E000EF86E00EE49F0A3
:107B960010EE16F00900F5CFEEFFE550E150FAE1E0
:107BA6000001636B626B616B606B00EE01F02E0E81
:107BB600EE6AE806FDE15F905F92000EF86E000146
:107BC60061EF3DF021D031C0F6FF32C0F7FF08006B
:107BD600F55004EC10F0000E336E000E346E000EFD
:107BE600356E000E366E010E3326000E3422352217
:0A7BF60036223650351006E1E80E85
:107C0000335C030E3458D8A0F1D7314A322A31C040
:107C1000F6FF32C0F7FF0800F5500009D8B4120093
:107C2000D5D70600F2A441D0F294D20ED66E480EFB
:107C3000D76E09040A100B100C10D8A40ED05150A6
:107C4000521053105410D8B408D0FF0E5126FF0E16
:107C50005222FF0E5322FF0E542205040610071075
:107C60000810D8A40ED04D504E104F105010D8B45C
:107C700008D0FF0E4D26FF0E4E22FF0E4F22FF0EA4
:107C800050220104021003100410D8A40ED0495051
:107C90004A104B104C10D8B408D0FF0E4926FF0EE6
:107CA0004A22FF0E4B22FF0E4C229EA00DD09E902A
:107CB0001B0ECE6ED10ECF6E03EC3DF015EC3DF0F9
:107CC000F2B008EC3DF0F2905F9211000F0E9516A5
:107CD000969296909694000E0001656F1E0E646F4A
:107CE000000E316E000E326E000E336E000E346EDA
:107CF000010E3126000E322233223422345008E1A4
:107D0000A00E315C860E3258010E3358D8A0F0D741
:107D1000020E0EEC3DF0000E0001656F010E646F67
:107D2000000E356E000E366E000E376E000E386E89
:107D3000010E3526000E362237223822385008E14F
:107D4000A00E355C860E3658010E3758D8A0F0D7F5
:107D5000280E0EEC3DF0000E0001656F010E646F01
:107D6000000E396E000E3A6E000E3B6E000E3C6E39
:107D7000010E3926000E3A223B223C223C5008E1FB
:107D8000A00E395C860E3A58010E3B58D8A0F0D7A9
:107D90000C0E0EEC3DF0000E0001656F010E646FDD
:107DA000000E3D6E000E3E6E000E3F6E000E406EE9
:107DB000010E3D26000E3E223F224022405008E1A7
:107DC000A00E3D5C860E3E58010E3F58D8A0F0D75D
:107DD000010E0EEC3DF0000E0001656F010E646FA8
:107DE000000E416E000E426E000E436E000E446E99
:107DF000010E4126000E422243224422445008E153
:107E0000A00E415C860E4258010E4358D8A0F0D710
:107E1000060E0EEC3DF0000E0001656F010E646F62
:107E2000000E456E000E466E000E476E000E486E48
:107E3000010E4526000E462247224822485009E1FD
:107E4000A00E455C860E4658010E4758D8B0120069
:107E5000EFD712005150521053105410D8B4B6D06E
:107E6000010E096E000E0A6E000E0B6E000E0C6EF7
:107E70008AD04D504E104F105010D8B412D0010E71
:107E8000056E000E066E000E076E000E086E8C82E8
:107E9000010EA5EC3DF0510E316E200E326EE5EC78
:107EA0003DF04D504E104F105010D8A48FD0000E02
:107EB000056E000E066E000E076E000E086E89EC51
:107EC0003DF0010E57D04D504E104F105010D8A419
:107ED0007DD08C9289EC3DF0030E4D6E000E4E6EFF
:107EE000000E4F6E000E506E020E44D049504A10E4
:107EF0004B104C10D8B412D0010E016E000E026E61
:107F0000000E036E000E046E8C80010EA5EC3DF099
:107F1000600E316E200E326EE5EC3DF049504A1095
:107F20004B104C10D8A452D0000E016E000E026E01
:107F3000000E036E000E046E030E0001606F000E53
:107F4000616F000E626F000E636F89EC3DF03ED0F2
:107F500049504A104B104C10D8A438D08C9089EC62
:107F60003DF0030E496E000E4A6E000E4B6E000E81
:107F70004C6E000E0001606F000E616F000E626FAC
:107F8000000E636F23D060C037F061C038F062C06C
:107F900039F063C03AF03A50000AD8B413D016D082
:107FA0003850000AD8A412D03750000AD8B461D78C
:107FB000010AD8B488D7030AD8B498D7010AD8B42C
:107FC000C7D704D03950000AD8B4EAD7515052105C
:107FD00053105410D8A41200000E096E000E0A6E41
:107FE000000E0B6E000E0C6E8C928C90010EA5ECA8
:107FF0003DF0410E316E200E326EE5EC3DF0120088
:020000040020DA
:08000000FFFFFFFFFFFFFFFF00
:020000040030CA
:0E000000240E3F1EFF8181FF0FC00FE00F4056
:020000040000FA
:00000E01F1
